:020000021000EC
:10C0000000600020A5C301005DC301005FC3010003
:10C0100061C3010063C3010065C3010000000000AB
:10C0200000000000000000000000000067C30100E5
:10C0300069C30100000000006BC301006DC3010073
:10C04000E50D02006FC30100251B02006FC3010054
:10C050006FC3010000000000211A02006FC301003D
:10C060006FC301006FC301006FC301006FC3010004
:10C070006FC301006FC301006FC301006FC30100F4
:10C080006FC301006DEA01006FC301006FC30100BF
:10C09000ADEA01006FC30100C97602006FC3010061
:10C0A0006FC301006FC3010000000000000000002A
:10C0B0006FC301006FC3010000000000000000001A
:10C0C0000000000000000000000000000000000070
:10C0D0000000000000000000000000000000000060
:10C0E0000000000000000000000000000000000050
:10C0F0000000000000000000000000000000000040
:10C10000000000000000000000000000000000002F
:10C11000000000000000000000000000000000001F
:10C12000000000000000000000000000000000000F
:10C1300000000000000000000000000000000000FF
:10C1400000000000000000000000000000000000EF
:10C1500000000000000000000000000000000000DF
:10C1600000000000000000000000000000000000CF
:10C1700000000000000000000000000000000000BF
:10C1800000000000000000000000000000000000AF
:10C19000000000000000000000000000000000009F
:10C1A000000000000000000000000000000000008F
:10C1B000000000000000000000000000000000007F
:10C1C000000000000000000000000000000000006F
:10C1D000000000000000000000000000000000005F
:10C1E000000000000000000000000000000000004F
:10C1F000000000000000000000000000000000003F
:10C20000354936480A1A02D0072291438D463449EF
:10C2100034480A1A06D00722914381F30988022282
:10C2200082F3148830483149314A00F044F83148EB
:10C230003149324A00F03FF831483249324A00F081
:10C240003AF832483249334A00F035F83248334937
:10C25000334A00F030F833483349344A00F02BF8C1
:10C2600033483449344A00F026F83448344900222F
:10C2700000F02CF833483449002200F027F8334806
:10C280003349091A082902DB002202604160314A61
:10C2900090471F481F49884205D00268043003B404
:10C2A000904703BCF7E700208646EC4600200021BB
:10C2B000294A9047FEE7884207D0521A05D00378F2
:10C2C00001300B700131013AF9D17047884202D038
:10C2D00002700130FAE7704700600020005800202B
:10C2E0000060002000600020488F0200002D002028
:10C2F000EC2D0020ECC30100ECC301004A7D0200DC
:10C30000488F0200002D0020002D0020407E0200FA
:10C31000407E0200407E0200407E0200407E02001D
:10C32000407E0200407E0200407E0200468F0200F6
:10C3300034900200EC2D0020EC2D0020EC2D00208C
:10C34000B14D0020B44D0020B44D0020B44D00206C
:10C35000B4550020BBC301005D450200FEE7FEE7C7
:10C36000FEE7FEE7FEE7FEE7FEE7FEE7FEE7FEE7A5
:10C3700009480068094909680A280AD1002908D132
:10C38000074802686FF070031A404FF040031A43E9
:10C39000026000F009B80000300100103401001004
:10C3A000E40E0040FFF7E4BF0B484FF0070188435D
:10C3B00085460A488047FFF723BF094809490A4ACA
:10C3C000884207D0521A05D0037801300B70013132
:10C3D000013AF9D17047000000600020B901020065
:0CC3E000407E0200002D0020002D0020F7
:10C3EC0000B585B00190019B002B0AD0074B43F0A0
:10C3FC0001030393019B9B010293039B02989847B3
:10C40C0000E000BF05B05DF804FB00BF507E0200E9
:10C41C0000B583B00190019B002B0AD04FF47A70C9
:10C42C00FFF7DEFF019B013B0193019B002BF5D134
:10C43C0000E000BF03B05DF804FB08B508F01AFA81
:10C44C0000BF08BD00B589B0039002910192019B19
:10C45C00002B33D00023079303230693029A079BE8
:10C46C001344019A1946002008F0B4F90590079A74
:10C47C00059B13440793019A059BD31A0193059BC3
:10C48C00002B13D10F4B1B7883F00103DBB2002B75
:10C49C0013D10120FFF7BCFF069B013B0693069BC3
:10C4AC00002B03D1074B00221A7007E0054B012229
:10C4BC001A70019B002BD1D100E000BF00BF09B066
:10C4CC005DF804FBEC2D002000B585B003900291C3
:10C4DC00054B00934023054A0299039800F012F88B
:10C4EC0000BF05B05DF804FB51C40100F02D002025
:10C4FC0082B0019000BF02B0704782B0019000BFC3
:10C50C0002B0704700B5A1B005900491039202935C
:10C51C00049803F0B7F9039B1593029B1693002321
:10C52C00179300238DF8603000231993229B1A93E4
:10C53C0000231F930FA91F9B0822049803F060FA95
:10C54C0008231F93119B1293BDF84030ADF84C306B
:10C55C00BDF84230ADF84E3000238DF851309DF8C7
:10C56C003C3003F00303DBB2012B26D10F9BC3F34A
:10C57C0095231C939DF83C30C3F3C203DBB28DF8BA
:10C58C005030BDF83C30C3F38313DBB21B931B9BC1
:10C59C009A0009A91F9B049803F032FA1B9B9B007D
:10C5AC001F9A13441F9312AA09A915AB00931346A3
:10C5BC001B9A1C9800F04EFF2FE09DF83C3003F0C6
:10C5CC000303DBB2022B28D1BDF83E30C3F3891331
:10C5DC009BB21E939DF83C30C3F3C203DBB28DF8C3
:10C5EC0050301E9B082B28BF08231D9307A91F9BA7
:10C5FC001D9A049803F004FA1F9A1D9B13441F9371
:10C60C001E9A1D9BD31A1E9315AB12AA07A81D992F
:10C61C0000F0C2FF1E9B002BE3D1049803F041F9FC
:10C62C0000BF21B05DF804FB82B00190019BDB6878
:10C63C0001225A7100BF02B07047000000B583B0F0
:10C64C004FF0FF330193FFF7F8FE0421054800F08B
:10C65C001DFE01900348FFF7E7FF00BF03B05DF834
:10C66C0004FB00BF307E020000B583B00190009146
:10C67C00019B1B681B6800990198984700BF03B089
:10C68C005DF804FB00B583B00190019B1B685B68EF
:10C69C000198984700BF03B05DF804FB00B583B068
:10C6AC000190019B1B689B680198984700BF03B0E1
:10C6BC005DF804FB82B001900B468DF80330019BB2
:10C6CC00DB689DF803201A7100BF02B0704782B07E
:10C6DC000190019BDB681B79184602B0704782B051
:10C6EC000190019BDB6801225A7100BF02B07047B8
:10C6FC0082B00190019BDB685B79184602B07047F1
:10C70C0000B585B0019000910C4B00221A700C48BA
:10C71C0003F01CF80390039B002B01D0039B08E053
:10C72C00084803F0B9F9084A084BD31ADB080293FE
:10C73C000023184605B05DF804FB00BF982F0020BD
:10C74C00AC7D0200687E0200307E0200C07D0200DB
:10C75C00024A034BD31ADB0818467047307E02009E
:10C76C00C07D020000B587B001900B468DF80330F8
:10C77C009DF80330002B1FD0FFF7EAFF0490002335
:10C78C00059313E0059B9B000E4A13440393039BF4
:10C79C001B881A46019B1B689A4204D1019B059A7F
:10C7AC001A60002309E0059B01330593059A049B4D
:10C7BC009A42E7D3052300E00023184607B05DF842
:10C7CC0004FB00BF002D002000B585B001900B4686
:10C7DC008DF803309DF8032001AB11461846FFF786
:10C7EC00C1FF0346002B07D1019BDB00054A134414
:10C7FC000393039B1B6800E00023184605B05DF80B
:10C80C0004FB00BFC07D020084B001900B468DF884
:10C81C000330019BDB00174A134402939DF803304D
:10C82C00013B032B1CD801A252F823F049C801008C
:10C83C0051C8010059C8010063C8010002238DF8DA
:10C84C000F3011E004238DF80F300DE0029B1B79A3
:10C85C008DF80F3008E0029B5B798DF80F3003E008
:10C86C0000238DF80F3000BF9DF80F30184604B030
:10C87C00704700BFC07D020084B00190009100237E
:10C88C008DF80F30019B1B7803F00403DBB2002BF7
:10C89C0024D0019B1B78C3F30103DBB2012B02D024
:10C8AC00022B0CD017E0009B1B68019A1288C2F374
:10C8BC008312D2B213449A1C009B1A600BE0009BAB
:10C8CC001B68019A5288C2F3891292B213449A1CC3
:10C8DC00009B1A6000BF01238DF80F309DF80F30BC
:10C8EC00184604B07047000000B58BB00023ADF8BB
:10C8FC0026303B4802F0F4FA3A4802F0F1FA3A4B8F
:10C90C009B680493394B1B680693049A069B13404F
:10C91C0002339B00344A13440433089304AB194686
:10C92C000898FFF7A9FF0346002B09D0049A069B31
:10C93C00134002339B002C4A134404330893EDE755
:10C94C0000BF0023079311E0049B5A1C0492069A23
:10C95C001340079A920001A90A44234902339B0011
:10C96C000B445B681360079B01330793079B012BF8
:10C97C00EAD99DF80430C3F30103DBB2012B10D0CC
:10C98C00022B1CD1BDF80A30ADF82630BDF80630AC
:10C99C00C3F389139BB203339A08049B1344049387
:10C9AC000EE0BDF80A30ADF82630BDF80430C3F304
:10C9BC008313DBB21A46049B1344049300E000BFBC
:10C9CC00084802F099FA0590059B002B02D0049BB5
:10C9DC00054A9360BDF8263018460BB05DF804FB91
:10C9EC00B0330020AC330020982F0020082D0020FD
:10C9FC0000B585B00021074802F0E9F90390039BCC
:10CA0C000293029B83F310030193019B184605B01C
:10CA1C005DF804FBB433002000B589B0039002919B
:10CA2C0001920093039B1B0C0693FFF7E1FF079009
:10CA3C00079B1904009B5A1C0A9B1340069A0A4335
:10CA4C001B4902339B000B445A60009A0A9B13400B
:10CA5C0002339B00164A134404330593039B03F0E3
:10CA6C000703D9B2059A137861F3C5031370019BC0
:10CA7C0003F00F03D9B2059A138861F3891313805D
:10CA8C00029BC3F31501059A136861F39F2313608E
:10CA9C00059A1378012161F301031370059A137839
:10CAAC006FF38203137000BF09B05DF804FB00BF85
:10CABC00982F002000B58DB00390029113468DF88D
:10CACC000730039B02330A9301238DF82730002390
:10CADC008DF81B300DF11B03184602F017F9404B73
:10CAEC005A68029B1A603F4B1A683D4B99683C4B45
:10CAFC005B68CB1A134401330B9314E001213A48C1
:10CB0C0002F0C0F9FFF7F0FE07900799364802F0E3
:10CB1C00B9F9344B1A68324B9968314B5B68CB1AB4
:10CB2C00134401330B930A9A0B9B9A42E6D89DF857
:10CB3C002730002B48D0002305939DF80730002B9D
:10CB4C0017D09DF81430012262F301038DF81430D4
:10CB5C009DF8143043F004038DF81430039B03F05C
:10CB6C000F03DAB2BDF8143062F38913ADF8143048
:10CB7C0016E09DF81430022262F301038DF8143094
:10CB8C009DF8143043F004038DF81430039BC3F369
:10CB9C0009039AB2BDF8163062F38F13ADF8163054
:10CBAC000F4B5A680F4B1B68134002339B000C4A07
:10CBBC00134404330893059A089B1A60084B5A686F
:10CBCC000A9B1344064A53609DF81B30184602F02A
:10CBDC00A7F89DF8273018460DB05DF804FB00BF90
:10CBEC00982F0020082D0020B433002000B58BB006
:10CBFC0005900491039202931F4B1B68079306AB9D
:10CC0C00012219460298FFF755FF0346002B24D04A
:10CC1C00069B023309930023089311E0089B9B00A9
:10CC2C00039A1A44099B591C099107990B401268E5
:10CC3C00124902339B000B445A60089B0133089342
:10CC4C00089A029B9A42E9D3069A079B00931346D3
:10CC5C00029A04990598FFF7DFFE084B1B78002B0E
:10CC6C0005D000BF00F008F90346002BFAD100BF35
:10CC7C000BB05DF804FB00BF082D0020982F00209E
:10CC8C0000B583B001900091002300220099019817
:10CC9C00FFF7ACFF00BF03B05DF804FB00B587B035
:10CCAC00039002910192019B059305AA012302991D
:10CCBC000398FFF79BFF00BF07B05DF804FB00B5BE
:10CCCC0087B00390029101920093019B0493009B07
:10CCDC00059304AA022302990398FFF787FF00BF6C
:10CCEC0007B05DF804FB00B589B003900291019286
:10CCFC000093019B0593009B06930A9B079305AA3F
:10CD0C00032302990398FFF771FF00BF09B05DF888
:10CD1C0004FB000000B58DB0039002911346ADF8F2
:10CD2C0006304B4B1B680B93BDF8063003339B0846
:10CD3C0005A900221846FFF7BDFE0346002B78D04C
:10CD4C00059B0A93059B02330593414B1A68059981
:10CD5C000B9B0B40D31A01339B000993BDF8063093
:10CD6C00099A9A420ED3059A0B9B134002339B00EF
:10CD7C00384A13440433BDF80620029918460AF0C9
:10CD8C0030FF17E0059A0B9B134002339B00314A8E
:10CD9C0013440433099A029918460AF022FF029AA6
:10CDAC00099BD118BDF80620099BD31A1A462A48AC
:10CDBC000AF017FF039B1B0C0893FFF719FE079053
:10CDCC00079B19040A9B5A1C0B9B1340089A0A4395
:10CDDC00204902339B000B445A600A9A0B9B134068
:10CDEC0002339B001B4A134404330693039B03F04A
:10CDFC000703D9B2069A137861F3C5031370069A28
:10CE0C0013886FF38F131380BDF80630C3F3090337
:10CE1C0099B2069A538861F38F135380069A13784C
:10CE2C00022161F301031370069A13786FF38203E6
:10CE3C001370084B1B78002B05D000BF00F01CF8BA
:10CE4C000346002BFAD100BF0DB05DF804FB00BF08
:10CE5C00082D0020982F0020A42F0020054B9A6845
:10CE6C00044B5B689A420CBF01230023DBB21846CB
:10CE7C00704700BF982F002000B599B0FFF7EEFF68
:10CE8C000346002B01D00023C0E19B4B0022C3F8CA
:10CE9C001824BFF34F8F00BF974B9B680493974B9D
:10CEAC001B681093049A109B134002339B00924A08
:10CEBC001344043311930023179300231693002378
:10CECC000F9304AB19461198FFF7D6FC0346002BC1
:10CEDC0019D0894BD3F81834002B14D1864B5A68CF
:10CEEC00049B9A4205D8844B5B68834A9360002369
:10CEFC008CE1049A109B134002339B007E4A13442E
:10CF0C0004331193DDE70023159311E0049B5A1CA5
:10CF1C000492109A1340159A920001A90A4476497A
:10CF2C0002339B000B445B681360159B0133159314
:10CF3C00159B012BEAD99DF8043003F00303DBB2F7
:10CF4C00022B40F09C80BDF80630C3F389139BB2D2
:10CF5C000D93BDF80630C3F389139BB2502B28BF39
:10CF6C0050239BB20C930C9BC3F309039AB2BDF8EC
:10CF7C00063062F38F13ADF806300C9B08330B931D
:10CF8C009DF80430C3F3C203DBB20F930B995C48DA
:10CF9C0002F0E7FB1790179B002B00F0D38017983B
:10CFAC0002F070FC01A9169B0822179802F014FDE0
:10CFBC00169B08331693049BDA43109B13400133E2
:10CFCC009B000A930C9A0A9B9A4242D90A9B002B0B
:10CFDC0008D0049A109B134002339B00464A13441A
:10CFEC00043300E0474B08930A9B002B02D00A9BAA
:10CFFC00DBB201E00C9BDBB28DF81F300A9B002BDF
:10D00C0001D0404B00E0002306930A9B002B06D076
:10D01C000C9BDAB20A9BDBB2D31ADBB200E0002322
:10D02C008DF817309DF81F20169B0899179802F061
:10D03C00D3FC9DF81F30169A13441693069B002BB5
:10D04C0016D09DF81720169B0699179802F0C4FC71
:10D05C000EE0049A109B134002339B00264A1344A3
:10D06C0004330993169B0C9A0999179802F0B4FC97
:10D07C000D9B03339A08049B1344049362E09DF8C0
:10D08C00043003F00303DBB2012B5BD1BDF8043099
:10D09C00C3F38313DBB2062B28BF0623DAB2BDF829
:10D0AC00043062F38913ADF80430BDF80430C3F3D7
:10D0BC008313DBB202330E939DF80430C3F3C20327
:10D0CC00DBB20F930E9B9B0019460D4802F049FBF7
:10D0DC001790179B002B35D0179802F0D3FB01A9A2
:10D0EC00169B0822179802F077FC169B08331693B0
:10D0FC00002315931DE000BF982F0020082D002061
:10D10C00AC7D0200A42F0020049B5A1C0492109AA0
:10D11C00134002339B003F4A1344191D169B0422F3
:10D12C00179802F059FC169B04331693159B013388
:10D13C001593BDF80430C3F38313DBB21A46159B69
:10D14C009342E1D3179B002B40D0324BD3F81034D1
:10D15C001493304BD3F81834002B1BD0179802F0D3
:10D16C00A0FB4DE000238DF84F301498FFF7C0FA68
:10D17C000346002B02D001238DF84F309DF84F3021
:10D18C00002B03D017991498FFF76EFA149BDB68E9
:10D19C001B681493149B002BE4D1179802F081FBAD
:10D1AC0000238DF803300DF10303184601F0AEFD9A
:10D1BC00184BD3F81834002B02D1049B154A9360FA
:10D1CC009DF80330184601F0ABFD19E0114BD3F874
:10D1DC001034129306E01298FFF760FA129BDB688A
:10D1EC001B681293129B002BF5D10B4A0B4BD31AD5
:10D1FC00DB081B0443F0020309491846FFF740FD06
:10D20C00FFF72CFE034683F00103DBB2184619B07E
:10D21C005DF804FB982F0020E87D0200C07D020021
:10D22C00787E020000B585B00023039323E0164BF3
:10D23C00D3F81034029301238DF807300FE00298D5
:10D24C00FFF745FA03461A46039B934203D100238A
:10D25C008DF8073006E0029BDB681B680293029B8B
:10D26C00002BECD19DF80730002B01D0039B07E07D
:10D27C00039B01330393039B092BD8DD4FF0FF3342
:10D28C00184605B05DF804FB982F002000B585B05A
:10D29C0001900B468DF80330FFF7C4FF0390039BFE
:10D2AC00B3F1FF3F01D1039B22E0039BDBB2194694
:10D2BC000198FFF7FFF9104BD3F81034002B08D16D
:10D2CC000D4A019BC2F81034019BDB6800221A60E6
:10D2DC000DE0094BD3F81034DA68019BDB68126857
:10D2EC001A60054BD3F81034DB68019A1A60039B63
:10D2FC00184605B05DF804FB982F002000B583B0EC
:10D30C000C4BD3F8103401930A4B01221A7009E02C
:10D31C000198FFF7E4F90198FFF7B4F9019BDB687A
:10D32C001B680193019B002BF2D100BF00BF03B01F
:10D33C005DF804FB982F002082B00190009100BF93
:10D34C0002B0704710B584B003900291039BDB8848
:10D35C00002B0AD0039BDB881A461F4B0093134605
:10D36C001E4A1F49029801F095FE039B1B7A052B60
:10D37C002ED0039B5B7A002B12D0039B9B881A4602
:10D38C00039B1B7A19461046FFF73EFA03461A46D2
:10D39C00144B53F822301A461349029801F07AFEC6
:10D3AC00039B1B6819460298FFF7C6FF039B1B7A69
:10D3BC001A460E4B53F82240039B9B8800211846BB
:10D3CC00FFF702FA034622460949029801F062FE71
:10D3DC0000BF04B010BD00BFAC7E0200BC7E0200DA
:10D3EC00F47E0200202D00200C7F02000C2D00206A
:10D3FC00107F020000B585B00390029113468DF8A2
:10D40C000730039B1B7A052B0FD0039B5B7A002BF9
:10D41C0006D00D4B1B681A460C49029801F03AFED7
:10D42C000B49029801F036FE07E09DF80730002BFF
:10D43C0003D00749029801F02DFE029801F012FE6C
:10D44C0000BF05B05DF804FB202D00200C7F02000E
:10D45C001C7F020030B58BB00790069105920493A7
:10D46C000E9B1B7B8DF827300E9B00221A730E9996
:10D47C000498FFF767FF059B062B7FD801A252F893
:10D48C0023F000BFADD40100B7D40100C7D4010014
:10D49C00DBD40100F9D4010021D5010051D50100E4
:10D4AC0007990E9801F0F6FD69E0069B1B681A4679
:10D4BC0007990E9801F0EEFD61E0069B1A68069B39
:10D4CC0004331B6807990E9801F0E4FD57E0069BA6
:10D4DC001A68069B04331968069B08331B68009373
:10D4EC000B4607990E9801F0D5FD48E0069B19688C
:10D4FC00069B04331868069B08331B68069A0C328B
:10D50C0012680192009303460A4607990E9801F09F
:10D51C00C1FD34E0069B1868069B04331C68069B0F
:10D52C0008331B68069A0C32126806991031096888
:10D53C000291019200932346024607990E9801F03E
:10D54C00A9FD1CE0069B1C68069B04331D68069B0A
:10D55C0008331B68069A0C32126806991031096858
:10D56C0006981430006803900291019200932B46A8
:10D57C00224607990E9801F08DFD00E000BF0022B5
:10D58C000E990498FFF736FF0E9B9DF827201A730F
:10D59C0000BF0BB030BD00BF00B587B00390029147
:10D5AC0001920093029B082B60D8009B1B7B8DF88B
:10D5BC001330009B00221A7300990198FFF7C2FEEA
:10D5CC000023059314E0059A029B9A4209D2039A10
:10D5DC00059B13441B781A462649009801F05AFD06
:10D5EC0003E02549009801F055FD059B0133059397
:10D5FC00059B072BE7D92149009801F04BFD00232F
:10D60C00059326E0059A029B9A421BD2039A059B2E
:10D61C0013441B788DF812309DF812307E2B0AD8EB
:10D62C009DF8123018460AF0D7FA0346002B02D0A8
:10D63C009DF8123000E02E231A461149009801F093
:10D64C0029FD03E00F49009801F024FD059B0133EF
:10D65C000593059B072BD5D9012200990198FFF75B
:10D66C00C9FE009B9DF813201A7300E000BF07B0A1
:10D67C005DF804FB207F0200287F02002C7F020053
:10D68C00307F0200347F020084B003468DF80730EF
:10D69C009DF807305B08DBB21A460D4B9B5C8DF88E
:10D6AC000F309DF8073003F00103002B04D09DF8D8
:10D6BC000F301B09DBB204E09DF80F3003F00F03B1
:10D6CC00DBB28DF80E309DF80E30184604B0704762
:10D6DC00F033002084B003460A468DF80730134619
:10D6EC008DF806309DF8073003F00103002B01D0B4
:10D6FC000F2300E0F0238DF80F309DF8073003F076
:10D70C000103002B04D09DF806301B01DBB201E0B5
:10D71C009DF806308DF80E309DF807305B08DBB2B3
:10D72C001A46114B9A5C9DF807305B08DBB2194620
:10D73C009DF80F301340DAB20B4B5A549DF807305A
:10D74C005B08DBB21A46084B9A5C9DF807305B0805
:10D75C00DBB219469DF80E301343DAB2024B5A5421
:10D76C0000BF04B0704700BFF033002084B0034604
:10D77C008DF807300023039310E00D4B1A68039BC0
:10D78C00DB0013440293029B1B789DF807209A42FE
:10D79C0001D1029B09E0039B01330393054B1B78DA
:10D7AC001A46039B9342E8DB0023184604B07047EB
:10D7BC00B8330020BC33002000B585B003460A46C0
:10D7CC008DF8073013468DF806309DF80730184653
:10D7DC00FFF7CCFF0390039B002B0BD0039B5B68E4
:10D7EC00002B07D0039B5B689DF806109DF8072063
:10D7FC001046984700BF05B05DF804FB2DE9F04FCB
:10D80C0087B003460A468DF80F3013468DF80E305C
:10D81C009DF80F301846FFF737FF0346042B00F234
:10D82C00C28001A252F823F049D80100BDD80100F2
:10D83C00D9D8010009D901001FD901009DF80E307B
:10D84C00002B00F0AD809DF80F3001211846FFF73A
:10D85C0041FF00238DF817300DF11703184601F026
:10D86C0055FA9DF80F104FF001024FF00003A1F193
:10D87C002004C1F1200003FA01F702FA04F4274353
:10D88C0022FA00F0074302FA01F6494BD3E90023D0
:10D89C0046EA020100913B430193454BDDE900123E
:10D8AC00C3E900129DF81730184601F039FA77E0F9
:10D8BC009DF80E30002B01D0022200E000229DF8D2
:10D8CC000F3011461846FFF705FF6CE09DF80E303F
:10D8DC00002B0CD09DF80F3003211846FFF7FAFEF1
:10D8EC009DF80F3001211846FFF766FF5BE09DF8AD
:10D8FC000F3001211846FFF7EDFE54E09DF80E3075
:10D90C00002B4FD19DF80F3004211846FFF7E2FE93
:10D91C0048E09DF80E30002B06D09DF80F30032107
:10D92C001846FFF7D7FE3EE09DF80F300021184651
:10D93C00FFF7D0FE9DF80F3000211846FFF73CFF93
:10D94C0000238DF816300DF11603184601F0DEF9A0
:10D95C009DF80F104FF001024FF00003A1F12006CB
:10D96C00C1F1200003FA01F502FA06F6354322FA5A
:10D97C0000F0054302FA01F46FEA04086FEA0509A6
:10D98C000B4BD3E9002308EA020A09EA030B084B04
:10D99C00C3E900AB9DF81630184601F0C1F902E05E
:10D9AC0000BF00E000BF00BF07B0BDE8F08F00BFB4
:10D9BC00E833002000B583B00648074B1B685B08B2
:10D9CC000022194601F0D6F8019000BF03B05DF8B3
:10D9DC0004FB00BFC4330020C033002000B587B067
:10D9EC0001900023059328E01C4B1A68059BDB0073
:10D9FC0013440493049B1B78184603F069FF0346F9
:10DA0C008DF80F30049B5B78012B0CBF0123002396
:10DA1C00DBB21A469DF80F309A420CBF012300234B
:10DA2C008DF80E30049B1B789DF80E20114618467D
:10DA3C00FFF7E4FE059B01330593094B1B781A464F
:10DA4C00059B9342D0DB074BD3E90023134301D052
:10DA5C00FFF7B0FF00BF07B05DF804FBB833002040
:10DA6C00BC330020E833002000B585B001900B4694
:10DA7C008DF80330019BDBB21846FFF777FE03905D
:10DA8C00039B1B78184603F023FF03468DF80B30DD
:10DA9C00039B5B78012B0CBF01230023DBB21A46DE
:10DAAC009DF80B309A420CBF012300238DF80A30ED
:10DABC009DF80A30002B06D0054BD3E90023134305
:10DACC0001D1FFF777FF00BF05B05DF804FB00BF85
:10DADC00E833002000B58BB003900B4601928DF813
:10DAEC000B30019B092B01D8072367E003F0E0FD05
:10DAFC00034683F00103DBB2002B09D003F074FD65
:10DB0C000990099B0893089B002B01D0089B55E0BA
:10DB1C002C4A039B13602C4A9DF80B3013702B4A34
:10DB2C00019B13601022002129480AF083F829492F
:10DB3C004FF000024FF00003C1E9002331E09DF8E3
:10DB4C000B30DB00039A1344079303238DF8143036
:10DB5C0000238DF815309DF816306FF300038DF807
:10DB6C0016309DF816306FF341038DF816309DF882
:10DB7C0016306FF382038DF81630079B9B788DF867
:10DB8C001530079B1B78184605AB134A194603F052
:10DB9C009BFD0990099B0693069B002B01D0069BCD
:10DBAC000CE09DF80B305A1E8DF80B20002BC6D1C3
:10DBBC000A4A00210A4800F0ADFF034618460BB094
:10DBCC005DF804FBB8330020BC330020C0330020C8
:10DBDC00F0330020E833002075DA0100E9D90100A8
:10DBEC00447F020000B583B0002301930CE00C4B82
:10DBFC001A68019BDB0013441B780121184603F0C3
:10DC0C00D3FD019B01330193064B1B781A46019BF4
:10DC1C009342ECD30023184603B05DF804FB00BF1D
:10DC2C00B8330020BC33002000B583B0002301932F
:10DC3C000BE0174B1A68019BDB0013441B7818464A
:10DC4C0003F01EFE019B01330193124B1B781A4605
:10DC5C00019B9342EDD300238DF803300DF10303A8
:10DC6C00184601F053F80C494FF000024FF0000336
:10DC7C00C1E900239DF80330184601F051F8074B19
:10DC8C00184600F0ADFF0346184603B05DF804FBE0
:10DC9C00B8330020BC330020E8330020C43300200C
:10DCAC0000B587B001900023039300230493019BDC
:10DCBC00059303AB1A46002144F2010000F018F85A
:10DCCC0000BF07B05DF804FBBFF34F8F00BF064BDE
:10DCDC00DB6803F4E0620449044B1343CB60BFF3ED
:10DCEC004F8F00BF00BFFDE700ED00E00400FA0518
:10DCFC0000B585B003900291019272B600BFFFF798
:10DD0C00FDFA00BFFFF7B8F80346002BFAD10F4A13
:10DD1C000F4BD31ADB081B0443F001030D491846C3
:10DD2C00FEF7AEFF0C4B1B6803F00103002B00D079
:10DD3C0000BE064A064BD31ADB081B0443F0020351
:10DD4C0006491846FEF79CFFFFF7BEFFE87D020070
:10DD5C00C07D0200487F0200F0ED00E0547F02001D
:10DD6C0082B00190019B03F00303002B0CBF012335
:10DD7C000023DBB2184602B07047000082B00346A5
:10DD8C008DF807309DF807309AB2064B1B889A42E3
:10DD9C0004D29DF807300133DBB200E000231846B3
:10DDAC0002B070470C34002000B583B00B4B1B78CD
:10DDBC008DF807300A4B1B78DBB21846FFF7DEFFF5
:10DDCC0003461A469DF8073093420CBF01230023EB
:10DDDC00DBB2184603B05DF804FB00BF083400202A
:10DDEC000934002082B0084B1B788DF80730074BA4
:10DDFC001B78DBB29DF807209A420CBF012300234D
:10DE0C00DBB2184602B070470834002009340020F9
:10DE1C0000B585B003460092ADF806300B46ADF860
:10DE2C000430BDF8043001339BB2DB00ADF80E308A
:10DE3C000098FFF795FF034683F00103DBB2002B3C
:10DE4C0001D0072317E00E4A009B1360BDF80E307B
:10DE5C00009A13440B4A13600B4B00221A700B4BA5
:10DE6C0000221A700A4ABDF806301380094ABDF820
:10DE7C00043013800023184605B05DF804FB00BF86
:10DE8C000034002004340020093400200834002021
:10DE9C000A3400200C34002000B587B003900B46E8
:10DEAC000192ADF80A30374B1B88BDF80A209A4214
:10DEBC0060D84FF6FF73ADF8123000238DF8113097
:10DECC000DF11103184600F021FFFFF76DFF03461B
:10DEDC00002B0ED12C4B1B78DBB2ADF812302A4B39
:10DEEC001B78DBB21846FFF749FF03461A46264B50
:10DEFC001A709DF81130184600F012FFBDF8123060
:10DF0C004FF6FF72934232D0204B1A68BDF8123094
:10DF1C00DB001344019A1A60039B002B1CD0BDF844
:10DF2C000A30002B18D01A4B1B68BDF8122015496B
:10DF3C00098801FB02F21344BDF80A200399184624
:10DF4C0009F04FFE114B1A68BDF81230DB00134478
:10DF5C00BDF80A209A8007E00C4B1A68BDF8123005
:10DF6C00DB00134400229A800023059304E0042371
:10DF7C00059301E009230593059B184607B05DF84E
:10DF8C0004FB00BF0A3400200934002000340020B8
:10DF9C0004340020002318467047000000B585B0FB
:10DFAC002FE0204B1B78DBB2ADF80E301E4B1B68FC
:10DFBC00BDF80E201D49098801FB02F2134402939F
:10DFCC001B4B1A68BDF80E30DB0013449B88ADF870
:10DFDC000630174B1A68BDF80E30DB0013441B6873
:10DFEC000093BDF80620009B1146029898470D4BF4
:10DFFC001B78DBB21846FFF7C1FE03461A46094BE5
:10E00C001A70FFF7C7FF034683F00103DBB2002B46
:10E01C0004D0FFF7E7FE0346002BC2D000BF05B0CB
:10E02C005DF804FB08340020043400200A3400207E
:10E03C000034002082B003468DF807309DF907307C
:10E04C00002B0CDB9DF8073003F01F0205499DF9EE
:10E05C0007305B09012000FA02F241F8232000BFCF
:10E06C0002B0704700E100E082B003468DF8073043
:10E07C009DF90730002B13DB9DF8073003F01F02CE
:10E08C0009499DF907305B09012000FA02F220339F
:10E09C0041F82320BFF34F8F00BFBFF36F8F00BF3A
:10E0AC0000BF02B0704700BF00E100E082B0034641
:10E0BC008DF807309DF90730002B0DDB9DF80730EC
:10E0CC0003F01F0206499DF907305B09012000FA95
:10E0DC0002F2403341F8232000BF02B0704700BF6A
:10E0EC0000E100E082B003468DF807309DF907305F
:10E0FC00002B0DDB9DF8073003F01F0206499DF93C
:10E10C0007305B09012000FA02F2603341F823204A
:10E11C0000BF02B0704700BF00E100E082B00346D0
:10E12C0000918DF807309DF90730002B0ADB009B1E
:10E13C00DAB20C499DF907305201D2B20B4483F884
:10E14C0000230BE0009BDAB207499DF8073003F07F
:10E15C000F03043B5201D2B20B441A7600BF02B03B
:10E16C00704700BF00E100E000ED00E000B585B0B5
:10E17C000190019B002B0AD0074B43F00103039342
:10E18C00019B9B010293039B0298984700E000BF00
:10E19C0005B05DF804FB00BF707F020000B583B0D2
:10E1AC000190064A019BC2F8083506211120FFF7A1
:10E1BC00B5FF00BF03B05DF804FB00BF00100140C9
:10E1CC0008B50D4B4FF48032C3F844230A4B4FF47F
:10E1DC008032C3F804231120FFF784FF1120FFF7CE
:10E1EC0029FF054B01221A602F20FFF7BFFF034BBD
:10E1FC0001221A7000BF08BD001001402E3500200E
:10E20C0008B51120FFF730FF0E4B4FF48032C3F8E6
:10E21C0048230C4B4FF48032C3F80823094B0122DE
:10E22C005A602F20FFF7A2FF064B01229A60064B83
:10E23C0000221A602F20FFF799FF044B00221A705E
:10E24C0000BF08BD00100140203500202E350020F5
:10E25C00024BD3F804351846704700BF001001403C
:10E26C0082B001900091019A009BD31A23F07F4356
:10E27C00184602B07047000082B00190034A019B1F
:10E28C00C2F8403500BF02B0704700BF001001401B
:10E29C0086B00190284B1B68002B03D1264A019BAA
:10E2AC00136045E0019B1A68234B1B681B689A425C
:10E2BC0010D8214B1B681968019B1A681E4B1B68F0
:10E2CC008A1A1A601C4B1A68019BDA611A4A019B64
:10E2DC0013602DE0019B1B680393174B1B68059380
:10E2EC00154B1B68049309E0049B1B68039AD31A13
:10E2FC000393049B0593049BDB690493049B002B01
:10E30C0004D0049B1B68039A9A42EDD8049B002B03
:10E31C0005D0049B1A68039BD21A049B1A60019BBC
:10E32C00039A1A60019B049ADA61059B019ADA61DF
:10E33C0000BF06B0704700BF1C35002000B587B089
:10E34C0001902A4B1B680393284B1B680593059B74
:10E35C00049308E0049A019B9A4208D0049B05930D
:10E36C00049BDB690493049B002BF3D100E000BFFA
:10E37C00049B002B01D1002333E0059A049B9A42A5
:10E38C0014D11A4B1B68DB69184A1360174B1B68B6
:10E39C00002B0BD1164B01229A60164B00221A60EF
:10E3AC00154B01221A702F20FFF7E0FE049B1B680F
:10E3BC000293049BDA69059BDA61059BDB69049384
:10E3CC00049B002B05D0049B1A68029B1A44049BE7
:10E3DC001A60064B1B68039A9A4214BF0123002350
:10E3EC00DBB2184607B05DF804FB00BF1C350020FB
:10E3FC0000100140203500202F35002008B51120D9
:10E40C00FFF754FE00BF08BD08B51420FFF74EFE01
:10E41C0000BF08BD00B583B00190019B5B69019AF8
:10E42C0092691046984700BF03B05DF804FB0000EA
:10E43C0000B585B02B4B1B68002B4ED000230193ED
:10E44C00FFF706FF0246284B1B6819461046FFF7DC
:10E45C0007FF0290234B1B6803931DE0039B1B6873
:10E46C00029A9A421CD3039B1B68029AD31A0293FA
:10E47C00039B1B68019A13440193039B0093039B1A
:10E48C00DB690393009B1B7C002B05D0009B0022B7
:10E49C001A740098FFF7BEFF039B002BDED100E03F
:10E4AC0000BF124B1A78124B1B789A420CD1104BAE
:10E4BC001B780133DAB20E4B1A700D4B1B78022B02
:10E4CC0002D10B4B00221A70094B1B781946094AD2
:10E4DC00019B42F82130FFF797FF00BF05B05DF8B4
:10E4EC0004FB00BF1C350020203500202C350020FB
:10E4FC002D3500202435002082B00190184B1A785D
:10E50C00184B1B789A4223D0154B1B780133DAB287
:10E51C00134B1A70124B1B78022B02D1104B00229A
:10E52C001A700F4B1B781A460F4B53F82220019B85
:10E53C001A60019B1A680D4B1B6813440B4A13603D
:10E54C000A4B1B6823F07F43084A1360012303E046
:10E55C00019B00221A600023184602B0704700BFCE
:10E56C002C3500202D3500202435002020350020AE
:10E57C0088B00390029101920023079338E0204B5E
:10E58C001B680693069B1B68039A9A4206D2069B4D
:10E59C001A68039BD21A069B1A602EE0069B1B6816
:10E5AC00039AD31A0393069B1B68079A1344079389
:10E5BC00069B00221A60124B1B680593069BDB69B5
:10E5CC000F4A1360069BDB68002B11D0029A079B45
:10E5DC00134423F07F42069B5A60069BDA68069B25
:10E5EC009A60019B1A68069BDA61019B059A1A6076
:10E5FC00034B1B68002BC2D100BF00BF08B0704793
:10E60C001C35002000B589B0019000238DF81F3017
:10E61C00664B1B680593AAE0019B002B05D0019B60
:10E62C000693069BDB69019361E0614B1B781A46EC
:10E63C0013465B001344DB005D4A1344043304931C
:10E64C005B4B1B780133DAB2594B1A70584B1A7862
:10E65C00574B9B789A4202D1554B00221A70049B5F
:10E66C005B680693049B1B78032B1ED0032B7EDC6C
:10E67C00012B1FD0022B7AD1049B5B681846FFF745
:10E68C005DFE0346002B02D001238DF81F30069B44
:10E69C0000221A746BE0454B1B680393039B00220A
:10E6AC001A74039BDB69414A1360404B1B68002BB7
:10E6BC00F1D15CE000BF069B1B7C002B00D056E028
:10E6CC00049B9A68069B5A60049BDA68069B9A60C6
:10E6DC00049B1A69069BDA60049B5A69069B9A6133
:10E6EC00344B1B78002B02D0069B00225A60069BF1
:10E6FC005A68314B1B68D31A23F07F432F4A93423D
:10E70C000ED8069B5B682C4A126811461846FFF718
:10E71C00A7FD0246069B9B681A44069B1A6017E0ED
:10E72C00254B1A68069B5B6819461046FFF798FD47
:10E73C000290069B9B68029A9A4206D2069B9A68A4
:10E74C00029BD21A069B1A6002E0069B00221A60FA
:10E75C00069B00225A60069B00229A60069B0122AF
:10E76C001A74069B0022DA610698FFF791FD019B53
:10E77C00002B7FF451AF0E4B1A780D4B5B789A42FD
:10E78C007FF44AAF9DF81F30002B04D1074B1B6858
:10E79C00059A9A4201D0012300E0002303F0010303
:10E7AC00DBB2184609B05DF804FB00BF1C35002035
:10E7BC00103400202F35002020350020FEFF7F0074
:10E7CC0010B588B00190274B1B68002B44D0254B0B
:10E7DC001B681B680793FFF73BFD0690224B1B68D9
:10E7EC00059305990698FFF73BFD03460333049305
:10E7FC001E4B1B7883F00103DBB2002B01D0FFF71B
:10E80C00DFFC049A079B934238BF1346059A1344C6
:10E81C000593059B23F07F4305930598FFF72CFD8B
:10E82C00FFF716FD039006990398FFF719FD0346B1
:10E83C00DC1C06990598FFF713FD03469C420DD985
:10E84C00FFF706FD03461846FFF716FD2F20FFF7CE
:10E85C008DFCFFF7D3FD01E0FFF7D2FC00BF08B041
:10E86C0010BD00BF1C350020203500202E350020A7
:10E87C0000B587B00023019300238DF81730194B96
:10E88C001B680493184B1B6803936B461846FFF7E1
:10E89C0033FE03468DF80B309DF80B30002B08D05F
:10E8AC00009B01AA04991846FFF762FE01238DF81C
:10E8BC001730019B1846FFF7A5FE0346002B02D02C
:10E8CC0001238DF817309DF81730002B02D00398D8
:10E8DC00FFF776FF054B00221A7000BF07B05DF8FA
:10E8EC0004FB00BF203500201C3500202F350020F4
:10E8FC0082B003468DF80730034A9DF807305370F9
:10E90C0000BF02B0704700BF1034002084B00190EB
:10E91C00144B5B7801338DF80F30124B9B789DF8BC
:10E92C000F209A4202D100238DF80F300D4B1B782B
:10E93C009DF80F209A4201D100230FE0019B9DF816
:10E94C000F201A70074B5B781A4613465B00134472
:10E95C00DB00044A134404330293029B184604B0B0
:10E96C00704700BF1034002000B589B003900291AD
:10E97C00019200930023079300238DF816300DF1BC
:10E98C001603184600F0C2F90DF117031846FFF7ED
:10E99C00BDFF0690069B002B02D10423079318E0C1
:10E9AC00069B01221A70069B039A5A60FFF750FCD3
:10E9BC000246069B9A60069B029ADA60069B019AB5
:10E9CC001A61069B009A5A619DF817301846FFF79A
:10E9DC008FFF9DF81630184600F0A2F9079B002B0C
:10E9EC0001D1FFF711FD079B184609B05DF804FB38
:10E9FC0000B587B001900B468DF8033000230593CA
:10EA0C0000238DF80E300DF10E03184600F07EF940
:10EA1C000DF10F031846FFF779FF0490049B002BB0
:10EA2C0002D1042305930BE0049B9DF803201A707C
:10EA3C00049B019A5A609DF80F301846FFF758FF57
:10EA4C009DF80E30184600F06BF9059B002B01D198
:10EA5C00FFF7DAFC059B184607B05DF804FB0000D5
:10EA6C0008B50E4B0022C3F840210C4B0022C3F812
:10EA7C0044210A4B0022C3F84821084B0022C3F85A
:10EA8C004C21064B0022C3F80021044B0022C3F892
:10EA9C000421FFF7CDFC00BF08BD00BF00100140F2
:10EAAC0008B5FFF7E5FE00BF08BD000008B5FFF78D
:10EABC00A7FB134B00221A70114B00225A70104BFB
:10EACC000B229A700F4B00221A600F4B00221A7007
:10EADC000E4B00221A701420FFF704FB06211420A1
:10EAEC00FFF71CFB1420FFF7A5FA0020FFF756FBDD
:10EAFC00FFF7AEFB0346064A13600023184608BD19
:10EB0C00103400201C3500202C3500202D35002021
:10EB1C002035002086B003900B4601928DF80B3007
:10EB2C00134B9B78002B01D108231EE0019B002B7B
:10EB3C0001D1072319E0039B002B01D1072314E01B
:10EB4C00039B1B681B7C002B01D008230DE0039B4F
:10EB5C001B680593059B00221A74059B9DF80B20DE
:10EB6C005A74059B019A5A610023184606B07047E7
:10EB7C001034002000B587B0039002910192039BE2
:10EB8C000593164B9B78002B01D1082322E0039BA5
:10EB9C00002B01D108231DE0029B042B03D9029BFF
:10EBAC00B3F1807F01D3072314E0059B5B69002B35
:10EBBC0001D108230EE0059B5B7C012B01D1029B4C
:10EBCC0000E000230493019B049A02990598FFF737
:10EBDC00CBFE0346184607B05DF804FB103400204A
:10EBEC0000B585B00190019B03930D4B9B78002BD6
:10EBFC0001D1082310E0019B002B03D0039B5B6920
:10EC0C00002B01D1082307E0039B00221A74022178
:10EC1C000398FFF7EDFE0346184605B05DF804FBBC
:10EC2C001034002082B0EFF310830093009B01930B
:10EC3C0072B600BF019B184602B0704762B600BFA7
:10EC4C0000BF704700B585B00190FFF7EBFF039054
:10EC5C00164B9B68002B1BD1144B01229A60144B52
:10EC6C00D3F88020134B1340104A1360104B114AF9
:10EC7C00C3F880200E4BD3F884300C4A53600C4BF5
:10EC8C004FF0FF32C3F88420019B00221A7002E07F
:10EC9C00019B01221A70039B002B01D1FFF7CEFFC1
:10ECAC000023184605B05DF804FB00BF303500208A
:10ECBC0000E100E0FC06FFBD00B585B003468DF811
:10ECCC000730104B9B68002B16D09DF80730002B9B
:10ECDC0012D1FFF7A7FF03900B4A0A4B1B68136076
:10ECEC00094A084B5B685360064B00229A60039BF1
:10ECFC00002B01D1FFF7A2FF0023184605B05DF8E9
:10ED0C0004FB00BF3035002000E100E000B583B00B
:10ED1C0001900198FFF796FF00BF03B05DF804FB6C
:10ED2C0000B583B003468DF807309DF807301846C0
:10ED3C00FFF7C2FF00BF03B05DF804FB00B585B060
:10ED4C0001900091009B5B099B00019A1A44009B67
:10ED5C0003F01F03012101FA03F31946104600F0DA
:10ED6C004CF8039000BF05B05DF804FB00B585B00E
:10ED7C0001900091009B5B099B00019A1A44009B37
:10ED8C0003F01F03012101FA03F3DB43194610467C
:10ED9C0000F061F8039000BF05B05DF804FB82B091
:10EDAC0001900091009B5B099B00019A13441A6827
:10EDBC00009B03F01F0322FA03F303F00103002B63
:10EDCC0014BF01230023DBB2184602B0704710B405
:10EDDC0087B001900091019B009A53E8004F1046B8
:10EDEC0043E8000191F0000FF7D1059404900391D2
:10EDFC00059B184607B010BC704710B487B0019043
:10EE0C000091019B009A53E8004F44EA020043E84A
:10EE1C00000191F0000FF6D1059404900391049B2E
:10EE2C00184607B010BC704710B487B00190009121
:10EE3C00019B009A53E8004F04EA020043E80001EA
:10EE4C0091F0000FF6D1059404900391059B1846A0
:10EE5C0007B010BC704710B487B001900091019BB3
:10EE6C00009A53E8004F04EA020043E8000191F0D5
:10EE7C00000FF6D1059404900391049B184607B03B
:10EE8C0010BC704710B487B001900091019B009AA0
:10EE9C0053E8004F04EB020043E8000191F0000F2F
:10EEAC00F6D1059404900391049B184607B010BC4E
:10EEBC00704710B487B001900091019B009A53E801
:10EECC00004FA4EB020043E8000191F0000FF6D1D3
:10EEDC00059404900391049B184607B010BC70472E
:10EEEC0000B583B0019001210198FFF786FF03461E
:10EEFC00184603B05DF804FB00B583B00190002107
:10EF0C000198FFF791FF0346184603B05DF804FB28
:10EF1C0082B001900B468DF80330019BDA689DF8A6
:10EF2C0003300199098A01FB03F31344184602B01C
:10EF3C00704782B001900091009B019AD2689B1A95
:10EF4C00019A128AB3FBF2F3DBB2184602B0704797
:10EF5C0084B00190019B002B01D10E2320E0019B7A
:10EF6C009A68019B5B68D31A8DF80F30019B1B6864
:10EF7C00019A52681A6007E0019B1A681368591CC1
:10EF8C0011609DF80F201A709DF80F305A1E8DF8E5
:10EF9C000F20002BF0D1019B1B6800221A7100235B
:10EFAC00184604B0704700B585B001900023039358
:10EFBC0000238DF80A300DF10A031846FFF7A6FE60
:10EFCC00019B1B681A68019B5B689A421FD9019BC5
:10EFDC001B681A68013A1A601B681B78194601985D
:10EFEC00FFF796FF0390019B9A68019B1B681B68B7
:10EFFC00D31A8DF80B30019B1B681B799DF80B20E5
:10F00C009A4204D9019B1B689DF80B201A719DF83C
:10F01C000A301846FFF784FE039B184605B05DF8CE
:10F02C0004FB10B584B001900091009B0393002366
:10F03C008DF80B300DF10B031846FFF767FE019BA3
:10F04C001B681C68621C1A6003990198FFF771FF1A
:10F05C00034623709DF80B301846FFF761FE00BF86
:10F06C0004B010BD00B583B00190019B9B68002BD0
:10F07C000CD0019B5B69019A1069019A1168019A85
:10F08C0092689847019B00229A6000E000BF03B091
:10F09C005DF804FB0EB400B584B00190059B002B09
:10F0AC000AD00023039306AB039303AB1A460599CE
:10F0BC00019800F0ADF900E000BF04B05DF804EB7E
:10F0CC0003B0704700B583B001900B468DF8033048
:10F0DC00019B1A68019B9B68581C0199886013441A
:10F0EC009DF803201A70019B9A68019B5B689A42F9
:10F0FC0002D30198FFF7B6FF00BF03B05DF804FB25
:10F10C0000B587B003900291019200930023059300
:10F11C00009B03F00103002B24D00BE0029B013376
:10F12C000293059B013305939DF813301946039800
:10F13C00FFF7C8FF029B1B788DF813309DF8133036
:10F14C00002BEBD106E0019B013B0193202103989E
:10F15C00FFF7B8FF019A059B9A422ED9019B002B11
:10F16C00F1D12AE0029B002B0BD0029808F0B7FDDE
:10F17C00059006E0019B013B019320210398FFF7CA
:10F18C00A1FF019A059B9A420FD9019B002BF1D14B
:10F19C000BE0029B01330293059B013305939DF811
:10F1AC00133019460398FFF78DFF029B1B788DF8DF
:10F1BC0013309DF81330002BEBD100BF07B05DF876
:10F1CC0004FB000000B589B00390029101920093FA
:10F1DC00029B07930123069307E0079A019BB2FB5E
:10F1EC00F3F30793069B01330693079A019B9A420C
:10F1FC00F3D2009A069B9A4201D9009B06930B9B73
:10F20C0003F00103002B22D10A9B002B1FD00B9B78
:10F21C0003F00203002B06D0009B002B03D13023FC
:10F22C008DF8173002E020238DF8173008E00A9B88
:10F23C00013B0A939DF8173019460398FFF742FFDC
:10F24C000A9B002B03D0069A0A9B9A42EFD3012308
:10F25C000793009B012B03D9009B013B009309E012
:10F26C00029A079BB2FBF3F30493049A019B9A4214
:10F27C0000D205E0079B019A02FB03F30793E8E732
:10F28C00029A079BB2FBF3F30493049B079A02FBCD
:10F29C0003F3029AD31A0293154A049B13441B7866
:10F2AC0019460398FFF70EFF079A019BB2FBF3F385
:10F2BC000793079B002BE3D10B9B03F00103002B5F
:10F2CC0011D00A9B002B0ED006E00A9B013B0A933F
:10F2DC0020210398FFF7F6FE0A9B002B03D0069A19
:10F2EC000A9B9A42F1D300BF09B05DF804FB00BF42
:10F2FC00787F020000B589B00590049103920293C7
:10F30C00049B002BB8BF5B4206930123079307E0D5
:10F31C00039B069A92FBF3F30693079B0133079327
:10F32C00039B069A9A42F3DA029A079B9A4201D9F6
:10F33C00029B07930A9B002B0AD0049B002B04DB37
:10F34C000B9B03F00403002B02D00A9B013B0A9396
:10F35C000B9B03F00203002B02D0029B002B16D058
:10F36C000B9B03F00103002B11D10A9B002B0ED039
:10F37C0006E00A9B013B0A9320210598FFF7A2FEA9
:10F38C000A9B002B03D0079A0A9B9A42F1D3049B49
:10F39C00002B07DA049B5B4204932D210598FFF7A1
:10F3AC0091FE08E00B9B03F00403002B03D02B21F0
:10F3BC000598FFF787FE0B9B03F00203002B19D077
:10F3CC000B9B03F00103002B14D1029B002B11D1DA
:10F3DC000A9B002B0ED006E00A9B013B0A933021BE
:10F3EC000598FFF76FFE0A9B002B03D0079A0A9B28
:10F3FC009A42F1D304990B9B01930A9B0093029BB5
:10F40C00039A0598FFF7DEFE00BF09B05DF804FB18
:10F41C0000B58FB0059004910392049B002B00F073
:10F42C009181049B1B788DF83730049B0133049336
:10F43C009DF83730002B00F07C819DF83730252B60
:10F44C0040F06B8100230A9301230C93049B1B78DF
:10F45C008DF837309DF83730302B0DD0302B1BDC2E
:10F46C002B2B11D02D2B17D10A9B43F001030A93A0
:10F47C00049B0133049312E00A9B43F002030A93AA
:10F48C00049B013304930AE00A9B43F004030A93A0
:10F49C00049B0133049302E000230C9300BF0C9BEC
:10F4AC00002BD3D1002309939DF837302A2B0CD194
:10F4BC00039B1B68191D039A11601B68099A13445E
:10F4CC000993049B013304931AE0049B1B788DF879
:10F4DC0037309DF837302F2B12D99DF83730392B18
:10F4EC000ED8049B01330493099A13469B001344D2
:10F4FC005B001A469DF837301344303B0993D3E731
:10F50C0000230B93049B1B788DF837309DF8373014
:10F51C002E2B1DD1049B01330493049B1B788DF877
:10F52C0037309DF837302F2B12D99DF83730392BC7
:10F53C000ED8049B013304930B9A13469B0013447F
:10F54C005B001A469DF837301344303B0B93E4E7CD
:10F55C00049B1B788DF837309DF837306C2B03D01B
:10F56C009DF83730682B07D1049B01330493049B1F
:10F57C001B788DF83730EFE79DF83730252B00F0EE
:10F58C00C280252BC0F2C480782B00F3C180582B8D
:10F59C00C0F2BE80583B202B00F2BA8001A252F878
:10F5AC0023F000BF9FF601001DF701001DF70100BD
:10F5BC001DF701001DF701001DF701001DF70100EB
:10F5CC001DF701001DF701001DF701001DF70100DB
:10F5DC0035F6010057F601001DF701001DF701007B
:10F5EC001DF701001DF7010057F601001DF7010082
:10F5FC001DF701001DF701001DF701001DF70100AB
:10F60C001DF70100DFF601001DF701001DF70100D9
:10F61C00C3F601001DF701007BF601001DF7010088
:10F62C001DF701009FF60100039B1B68191D039A2F
:10F63C0011601B680C930C9B8DF81F309DF81F30CC
:10F64C0019460598FFF73EFD63E0039B1B68191DE7
:10F65C00039A11601B680C930A9B0193099B0093FE
:10F66C000B9B0A220C990598FFF744FE51E0039B73
:10F67C001B68191D039A11601B680C930C990A9B4B
:10F68C000193099B00930B9B0A220598FFF79AFDA7
:10F69C003FE0039B1B68191D039A11601B680C93B8
:10F6AC000C990A9B0193099B00930B9B10220598C4
:10F6BC00FFF788FD2DE0039B1B68191D039A116051
:10F6CC001B6808930A9B099A08990598FFF718FD7F
:10F6DC001FE0039B1B68191D039A11601B680C9398
:10F6EC0030210598FFF7EEFC78210598FFF7EAFC2E
:10F6FC000C990023019308230093082310220598EA
:10F70C00FFF760FD05E025210598FFF7DBFC00E025
:10F71C0000BF049B0133049305E09DF83730194674
:10F72C000598FFF7CFFC049B1B78002B7FF479AE78
:10F73C0000E000BF059B1B7B002B04D00598FFF756
:10F74C0091FC00E000BF0FB05DF804FB00B583B086
:10F75C0001900198FFF7FCFB0346184603B05DF8D7
:10F76C0004FB00B58BB001900091019B1B8A043BFC
:10F77C000793009A079B1344DA1C079BB2FBF3F325
:10F78C008DF81B300198FFF70EFC0590059B002BA4
:10F79C0001D1002338E0059B00221A71059B012240
:10F7AC005A71079B9AB2059BDA80059B09939DF8C9
:10F7BC001B30013B0493099B019A1A6000230893A8
:10F7CC001DE00198FFF7EFFB0390039B002B0ED07D
:10F7DC00059B5B790133DAB2059B5A71099B039A3D
:10F7EC001A60039B019A1A60039B099304E0059825
:10F7FC0000F00EF8002307E0089B01330893089AE9
:10F80C00049B9A42DDD3059B18460BB05DF804FBB4
:10F81C0000B58BB00190019B0793079B5B798DF82A
:10F82C001B30019B08939DF81B30013B0593002373
:10F83C00099305E0089B1B680893099B0133099306
:10F84C00099A059B9A42F5D3089B1B680493019B6C
:10F85C000893002309930BE0089B1B6803930899FA
:10F86C000498FFF7DEFB039B0893099B0133099374
:10F87C009DF81B30099A9A42EED300BF00BF0BB023
:10F88C005DF804FB00B585B00190019B0393039BCD
:10F89C00043301211846FFF7F5FA00BF05B05DF8F7
:10F8AC0004FB00B587B00190019B0593059B0433C5
:10F8BC0001211846FFF7FDFA0346039303AB0493AB
:10F8CC00049B1B78002B02D10198FFF7A1FF00BF0E
:10F8DC0007B05DF804FB00B591B003900291019262
:10F8EC000093039B0993039B0F93099BDB881A4698
:10F8FC00099B5B7903FB02F3043B0893099BDB88B0
:10F90C000793009B1A1D079BB2FBF3F30E93009B0E
:10F91C000433079AB3FBF2F2079901FB02F29B1A2C
:10F92C000D93019B1A68009B1344089A9A4203D2C8
:10F93C00089A009BD31A01E0019B1B680C93019B56
:10F94C000C9A1A6005E00F9B1B680F930E9B013BF2
:10F95C000E930E9B002BF6D100230B93079A0D9B55
:10F96C00D31A0A930A9A0C9B934228BF13460A9304
:10F97C002AE0029A0B9B134406930F9A0D9B134497
:10F98C00043305939DF84830002B05D00A9A05994D
:10F99C00069808F026F904E00A9A0699059808F0EA
:10F9AC0020F900230D930F9B1B680F930C9A0A9B55
:10F9BC00D31A0C930B9A0A9B13440B93079A0C9B28
:10F9CC00934228BF13460A930C9B002BD1D100BF46
:10F9DC0000BF11B05DF804FB00B589B0059004912F
:10F9EC0003920293039B079307AA00230093029BA5
:10F9FC0004990598FFF76FFF00BF09B05DF804FB91
:10FA0C0000B589B00590049103920293039B079370
:10FA1C0007AA01230093029B04990598FFF75BFF4B
:10FA2C0000BF09B05DF804FB82B00190019B00227D
:10FA3C001A60BFF35F8F00BF00BF02B0704741DF99
:10FA4C00704700BF1846000008B5064B00221A701C
:10FA5C000548FFF7E9FF0549054800F03AF800238F
:10FA6C00184608BD403500203C350020947F02002C
:10FA7C004435002000B583B007F0F2FD0346002B9F
:10FA8C0003D0FFF7DCFF019002E020BF40BF20BF96
:10FA9C0000BF03B05DF804FB82B00190019B9B6832
:10FAAC0000229A60019B9B6800221A61019B9B6853
:10FABC0000225A61019B9B680022DA60019B9B68C3
:10FACC0000225A60019B9B6800221A6000BF02B0A2
:10FADC00704782B001900091019B009A1A60019BC3
:10FAEC001B681A68019B5A60019B5A68019B1B6832
:10FAFC005B689A4202D1019B00225A6000BF02B09F
:10FB0C00704782B00190019B5B68002B14D0019B65
:10FB1C005B681A46019B1B689B6813441A46019B41
:10FB2C005A60019B5A68019B1B685B689A4204D11E
:10FB3C00019B00225A6000E000BF02B07047000039
:10FB4C0000B585B00190019800F00EF80390039B6E
:10FB5C00002B01D0039B00E0024B184605B05DF86A
:10FB6C0004FB00BFA07F020086B00190164B0593EA
:10FB7C00164B04931FE0049A059BD31ADB10DA0F83
:10FB8C0013445B10DB00059A13440393039B1B681F
:10FB9C000293029A019B9A4202D9039B04930AE0B6
:10FBAC00029A019B9A4203D2039B0833059302E00D
:10FBBC00039B5B6804E0059A049B9A42DBD3002309
:10FBCC00184606B0704700BFA0830200C88402002C
:10FBDC00BFF34F8F00BF064BDB6803F4E0620449B0
:10FBEC00044B1343CB60BFF34F8F00BF00BFFDE747
:10FBFC0000ED00E00400FA0582B01B4B1B68B3F16A
:10FC0C00FF3F0AD1194B1B68DBB20193184B1B68E1
:10FC1C001B0903F00F03009305E0134B1B680193C2
:10FC2C00144B1B680093019B062B19D1009B033BC3
:10FC3C00032B13D801A252F823F000BF59FC01008A
:10FC4C005DFC010061FC010065FC0100012308E082
:10FC5C00012306E0012304E0012302E0012300E07C
:10FC6C000023184602B0704730010010E00F00F07E
:10FC7C00E80F00F03401001082B0154B1B68DBB2AA
:10FC8C000193144B1B681B0903F00F030093019B9A
:10FC9C00062B19D1009B033B032B13D801A252F85E
:10FCAC0023F000BFC1FC0100C5FC0100C9FC010030
:10FCBC00CDFC0100012308E0002306E0002304E052
:10FCCC00002302E0002300E00023184602B0704736
:10FCDC00E00F00F0E80F00F082B0234B1B68B3F18B
:10FCEC00FF3F0AD1214B1B68DBB20193204B1B68F1
:10FCFC001B0903F00F03009305E01B4B1B680193DA
:10FD0C001C4B1B680093019B062B19D1009B033BDA
:10FD1C00032B13D801A252F823F000BF39FD0100C8
:10FD2C003DFD010041FD010045FD0100012318E0EE
:10FD3C00012316E0012314E0012312E0012310E05B
:10FD4C00019B0A2B0CD1009B002B03D0009B012B99
:10FD5C0002D003E0012304E0012302E0012300E0D0
:10FD6C000023184602B0704730010010E00F00F07D
:10FD7C00E80F00F03401001082B0154B1B68DBB2A9
:10FD8C000193144B1B681B0903F00F030093019B99
:10FD9C00062B19D1009B033B032B13D801A252F85D
:10FDAC0023F000BFC1FD0100C5FD0100C9FD01002C
:10FDBC00CDFD0100012308E0002306E0002304E050
:10FDCC00002302E0002300E00023184602B0704735
:10FDDC00E00F00F0E80F00F082B0234B1B68B3F18A
:10FDEC00FF3F0AD1214B1B68DBB20193204B1B68F0
:10FDFC001B0903F00F03009305E01B4B1B680193D9
:10FE0C001C4B1B680093019B062B19D1009B033BD9
:10FE1C00032B13D801A252F823F000BF39FE0100C6
:10FE2C003DFE010041FE010045FE0100012318E0EA
:10FE3C00012316E0012314E0012312E0012310E05A
:10FE4C00019B0A2B0CD1009B002B03D0009B012B98
:10FE5C0002D003E0012304E0012302E0012300E0CF
:10FE6C000023184602B0704730010010E00F00F07C
:10FE7C00E80F00F03401001082B0154B1B68DBB2A8
:10FE8C000193144B1B681B0903F00F030093019B98
:10FE9C00062B19D1009B033B032B13D801A252F85C
:10FEAC0023F000BFC1FE0100C5FE0100C9FE010028
:10FEBC00CDFE0100012308E0002306E0002304E04E
:10FECC00002302E0002300E00023184602B0704734
:10FEDC00E00F00F0E80F00F082B0154B1B68DBB2AE
:10FEEC000193144B1B681B0903F00F030093019B38
:10FEFC00062B19D1009B033B032B13D801A252F8FC
:10FF0C0023F000BF21FF010025FF010029FF0100A4
:10FF1C002DFF0100012308E0002306E0002304E08C
:10FF2C00002302E0002300E00023184602B07047D3
:10FF3C00E00F00F0E80F00F082B0234B1B68B3F128
:10FF4C00FF3F0AD1214B1B68DBB20193204B1B688E
:10FF5C001B0903F00F03009305E01B4B1B68019377
:10FF6C001C4B1B680093019B062B19D1009B033B78
:10FF7C00032B13D801A252F823F000BF99FF010004
:10FF8C009DFF0100A1FF0100A5FF0100002318E067
:10FF9C00002316E0012314E0012312E0012310E0FA
:10FFAC00019B0A2B0CD1009B002B03D0009B012B37
:10FFBC0002D003E0012304E0012302E0012300E06E
:10FFCC000023184602B0704730010010E00F00F01B
:10FFDC00E80F00F0340100100023184670470000B1
:10FFEC0082B01B4B1B68B3F1FF3F0AD1194B1B6846
:04FFFC00DBB20193E0
:020000022000DC
:10000000184B1B681B0903F00F03009305E0134B0B
:100010001B680193144B1B680093019B062B19D19D
:10002000009B033B032B13D801A252F823F000BF1F
:100030004100020045000200490002004D0002009C
:10004000012308E0012306E0012304E0012302E08C
:10005000012300E00023184602B070473001001071
:10006000E00F00F0E80F00F03401001082B0234BE5
:100070001B68B3F1FF3F0AD1214B1B68DBB2019330
:10008000204B1B681B0903F00F03009305E01B4B7B
:100090001B6801931C4B1B680093019B062B19D115
:1000A000009B033B032B13D801A252F823F000BF9F
:1000B000C1000200C5000200C9000200CD0002001C
:1000C000012318E0012316E0012314E0012312E0CC
:1000D000012310E0019B0A2B0CD1009B002B03D0C5
:1000E000009B012B02D003E0012304E0012302E086
:1000F000012300E00023184602B0704730010010D1
:10010000E00F00F0E80F00F03401001082B0134B54
:100110001B680193124B1B680093019B062B19D19E
:10012000009B033B032B13D801A252F823F000BF1E
:100130004101020045010200490102004D01020097
:10014000002308E0002306E0002304E0012302E08E
:10015000012300E00023184602B070473001001070
:100160003401001082B00D4B1B6801930C4B1B68CF
:100170000093019B0A2B0CD1009B002B03D0009B0A
:10018000012B02D003E0002304E0012302E001235D
:1001900000E00023184602B0704700BF3001001095
:1001A00034010010024B034A1A6000BF704700BFC1
:1001B000442D00200090D00308B5FFF723FD03462F
:1001C000002B06D0BD4B1B681B0ABD4A03F01F0362
:1001D0001360FFF757FD0346002B02D0B94BBA4A14
:1001E0001A60FFF77FFD0346002B06D0B74B1B6854
:1001F0005B0BB74A03F007031360FFF7C3FD034629
:10020000002B05D0B34BDB68B24A23F08073D36078
:10021000FFF7E8FD0346002B0ED04FF0804300228D
:10022000C3F80C214FF080430022C3F810214FF097
:1002300080430022C3F83825FFF724FE0346002B35
:1002400002D0A54B03221A60FFF74CFE0346002B99
:100250000BD0A24B05221A60A14B01221A60A14BC0
:1002600000221A60A04B3F221A60FFF76BFE034684
:10027000002B76D04FF080539C4AD3F80434C2F858
:1002800020354FF08053994AD3F80834C2F824350A
:100290004FF08053954AD3F80C34C2F828354FF00C
:1002A0008053924AD3F81034C2F82C354FF0805363
:1002B0008E4AD3F81434C2F830354FF080538B4A4D
:1002C000D3F81834C2F834354FF08053874AD3F846
:1002D0001C34C2F840354FF08053844AD3F82034A0
:1002E000C2F844354FF08053804AD3F82434C2F822
:1002F00048354FF080537D4AD3F82834C2F84C3546
:100300004FF08053794AD3F82C34C2F850354FF06F
:100310008053764AD3F83034C2F854354FF08053C6
:10032000724AD3F83434C2F860354FF080536F4AC4
:10033000D3F83834C2F864354FF080536B4AD3F8A1
:100340003C34C2F868354FF08053684AD3F84034E3
:10035000C2F86C354FF08053644AD3F84434C2F885
:100360007035FFF73FFE0346002B03D0604BFB22A6
:10037000C3F81825FFF73AFE0346002B05D05D4B66
:100380001B685D4A03F04F031360FFF76FFE0346DF
:10039000002B0DD04FF08043D3F8003403F001035D
:1003A000002B05D04FF080436FF00102C3F800240A
:1003B000FFF7ACFE0346002B05D0504B1B684F4A9D
:1003C00043F480631360FFF7CDFE0346002B05D096
:1003D000494B1B68484A43F00F0313604FF010234A
:1003E000D3F80032002B05DB4FF01023D3F8043292
:1003F000002B2BDA424B0122C3F8042500BF404BEF
:10040000D3F80034002BFAD04FF010231522C3F894
:10041000002200BF3A4BD3F80034002BFAD04FF043
:1004200010231522C3F8042200BF354BD3F8003443
:10043000002BFAD0324B0022C3F8042500BF304B0A
:10044000D3F80034002BFAD0FFF7C8FB2D4B1B6804
:1004500003F00103002B05D12B4B1B6803F00103B4
:10046000002B27D0264B0122C3F8042500BF244BC4
:10047000D3F80034002BFAD0224B00221A6000BFC0
:100480001F4BD3F80034002BFAD01F4B00221A6008
:1004900000BF1B4BD3F80034002BFAD0184B0022BE
:1004A000C3F8042500BF164BD3F80034002BFAD054
:1004B000FFF794FBFFF776FE00BF08BD2403001092
:1004C0004035014074C007400DF0ADBA4402001041
:1004D0003C050040F0ED00E0A00500401056004053
:1004E00088560040185600401456004000C0004096
:1004F00000F0004058020010E40E00403C1700409D
:1005000000E00140001200100412001082B00190BF
:100510004FF0A043184602B0704700B585B0019077
:10052000084611461A4603468DF803300B468DF8EF
:10053000023013468DF8013001AB1846FFF7E6FF95
:1005400003909DF803209DF802305B001A439DF84C
:1005500001309B001A439DF818301B0242EA030148
:100560009DF81C301B04019A1943039B02F5E072AD
:1005700043F8221000BF05B05DF804FB00B585B05C
:100580000390002301930023009300230122012103
:100590000398FFF7C2FF00BF05B05DF804FB00B58C
:1005A00085B003900B468DF80B309DF80B30002280
:1005B000019200220092002200210398FFF7ADFF74
:1005C00000BF05B05DF804FB00B585B0019001AB3C
:1005D0001846FFF79BFF0390019B012202FA03F3E9
:1005E0001946039800F02AF800BF05B05DF804FB37
:1005F00000B585B0019001AB1846FFF787FF039067
:10060000019B012202FA03F31946039800F020F837
:1006100000BF05B05DF804FB00B583B00190009108
:10062000009B002B03D10198FFF7E2FF02E0019845
:10063000FFF7CAFF00BF03B05DF804FB82B0019072
:100640000091019B009AC3F8082500BF02B07047D3
:1006500082B001900091019B009AC3F80C2500BF65
:1006600002B0704700B583B00190064A019B134465
:100670001B7800211846FFF7CFFF00BF03B05DF8DD
:1006800004FB00BFC884020000B583B00190064A95
:10069000019B13441B7801211846FFF7BDFF00BFE3
:1006A00003B05DF804FB00BFC884020000B583B04E
:1006B0000023019305E00198FFF7E6FF019B01335A
:1006C0000193019B032BF6D900BF00BF03B05DF877
:1006D00004FB000000B583B00023019309E0094A40
:1006E000019B13441B781846FFF748FF019B013319
:1006F0000193019B032BF2D9FFF7D8FF00BF03B092
:100700005DF804FBC884020000B583B000230193A8
:100710000AE0094A019B13441B7803211846FFF79E
:100720003EFF019B01330193019B032BF1D900BFD5
:1007300000BF03B05DF804FBCC84020000B583B0B9
:100740000190019B03F00103002B01D0FFF7C2FFD2
:10075000019B03F00203002B01D0FFF7D5FF00BF80
:1007600003B05DF804FB000082B003468DF807304B
:100770009DF90730002B13DB9DF8073003F01F02B3
:1007800009499DF907305B09012000FA02F2203384
:1007900041F82320BFF34F8F00BFBFF36F8F00BF1F
:1007A00000BF02B0704700BF00E100E0044BD3F887
:1007B0000034002B14BF01230023DBB2184670471E
:1007C0000000014008B5FFF7F1FF034683F0010385
:1007D000DBB2002B04D000F0F1FA024B00229A7039
:1007E00000BF08BD4C35002000B583B00023019345
:1007F000184B1B78002B02D0852301931CE0154B6E
:1008000000229A60134B00225A60124B00221A6198
:10081000104B0022DA60104800F0AEFA019006F0AA
:1008200025FF034683F00103DBB2002B01D000F06B
:10083000BDFA084B01221A70FFF7B8FF0346002BE0
:1008400002D0044B01229A70019B184603B05DF858
:1008500004FB00BF4C3500200909020084B0019060
:10086000019B1B680393039B002B03D0039B1A6817
:10087000019B1A60039B184604B0704700B583B013
:1008800000238DF807300DF107031846FEF744FAF0
:10089000094BDB68013B084AD360074BDB68002B40
:1008A00001D1FFF78FFF9DF807301846FEF73EFA9B
:1008B00000BF03B05DF804FB4C35002000B585B0E7
:1008C00003468DF807309DF80730002B02D10C4B02
:1008D000039301E00B4B03930398FFF7BFFF0290D4
:1008E000029B002B06D0029B5B689DF807201046F8
:1008F0009847F1E700BF00BF05B05DF804FB00BFFB
:10090000543500205C35002000B583B003468DF8D7
:1009100007309DF80730002B05D10A4B01225A7091
:100920000020FFF7CBFF9DF80730012B05D1054BC9
:1009300001229A700120FFF7C1FF00BF03B05DF8EC
:1009400004FB00BF4C35002000B583B0019000913E
:10095000019B002B05D1054B01225A700020FFF7A7
:10096000ADFF00BF03B05DF804FB00BF4C350020B5
:1009700000B585B0034600918DF807309DF807302B
:10098000032B29D0032B2CDC002B02D0012B04D00D
:1009900027E00020FFF7E8FE24E000238DF80F3069
:1009A0000DF10F031846FEF7B7F9104B1B7883F0D3
:1009B0000103DBB2002B01D0FFF716FF0B4BDB6806
:1009C00001330A4AD360094B01229A709DF80F3017
:1009D0001846FEF7ABF905E000F0E8F9FFF74EFF27
:1009E00000E000BF00BF05B05DF804FB4C350020FF
:1009F00000B589B001900091009B0793019B1B7883
:100A00008DF80C30019B5B680493019B9B68DBB203
:100A10008DF81430019BDB680693074A079B52F858
:100A200023300649079A51F8221003AA1046984726
:100A300000BF09B05DF804FB60350020643500207C
:100A400000B589B001900091009B0793019B1B7832
:100A50008DF80C30019B5B680493019B9B68DBB2B3
:100A60008DF81430019BDB680693074A079B52F808
:100A700023300649079A51F8221003AA10469847D6
:100A800000BF09B05DF804FB60350020643500202C
:100A900030B58FB0039002910192039B1B780C93A9
:100AA00026490C9B019A41F82320029B1A6924498C
:100AB0000C9B41F82320029B5B7F1946214A0C9B2B
:100AC00013440A461A70029B04AC1D460FCD0FC496
:100AD00095E80F0084E80F000C9B089300230D930A
:100AE000039B1B781A46174B9B5C002B0DD0039B76
:100AF000181D019B002B01D0134A00E0002204AB1B
:100B0000194602F0B7F80D9014E0039B1B781A46C3
:100B10000C4B9B5C002B0DD1039B03F10C00019B44
:100B2000002B01D0094A00E0002204AB194601F075
:100B30008FFA0D900D9B18460FB030BD6035002028
:100B40006435002068350020F1090200410A0200E6
:100B500082B003468DF807309DF90730002B0CDB7F
:100B60009DF8073003F01F0205499DF907305B0926
:100B7000012000FA02F241F8232000BF02B07047C2
:100B800000E100E082B0034600918DF807309DF946
:100B90000730002B0ADB009BDAB20C499DF90730C5
:100BA0005201D2B20B4483F800230BE0009BDAB26F
:100BB00007499DF8073003F00F03043B5201D2B2FE
:100BC0000B441A7600BF02B0704700BF00E100E09E
:100BD00000ED00E082B00190019B1B0B5BB2184658
:100BE00002B0704700B583B003460A468DF807305F
:100BF00013468DF806309DF806209DF90730114602
:100C00001846FFF7BFFF00BF03B05DF804FB00B557
:100C100083B003468DF807309DF907301846FFF77B
:100C200097FF00BF03B05DF804FB000082B00346ED
:100C30008DF807300F4A9DF90730002B00DA1F337B
:100C40005B115BB252F823209DF90730594203F043
:100C50001F0301F01F0158BF4B425BB222FA03F39E
:100C600003F00103002B14BF01230023DBB218465D
:100C700002B0704700E100E082B001904FF0804286
:100C8000019BC2F8083300BF02B0704782B0034630
:100C90008DF807309DF8073003F1804301221A6078
:100CA00000BF02B0704784B00346ADF80630BDF80F
:100CB000063003F1804300221A60BDF8063003F1CC
:100CC00080431B680393039B00BF04B0704782B04E
:100CD0000346ADF80630BDF8063003F180431B68CB
:100CE000002B14BF01230023DBB2184602B070476B
:100CF00082B001904FF08042019BC2F8183500BFCE
:100D000002B070474FF08043D3F818341B0C03F047
:100D10000103002B14BF01230023DBB218467047E8
:100D200000B583B006238DF807304FF08040FFF701
:100D300051FF03461846FFF779FF034683F001038E
:100D4000DBB2002B13D04FF08040FFF743FF034688
:100D50001A469DF8073019461046FFF743FF4FF03B
:100D60008040FFF737FF03461846FFF750FF00BFEC
:100D700003B05DF804FB000084B0019000230393EE
:100D8000094B1B79002B02D08523039308E0064A08
:100D9000019B1360044B01221A71034B00225A710C
:100DA000039B184604B070476C35002008B5FFF768
:100DB000B7FF0120FFF79CFF00BF08BD08B5022068
:100DC000FFF75AFF4FF48270FFF76DFF0C20FFF71B
:100DD0005DFF00BFFFF796FF0346002BFAD100BF6F
:100DE00000BF08BD08B54FF48070FFF770FF0346E1
:100DF000002B14D04FF48070FFF755FF0120FFF750
:100E00003BFF114B5B7983F00103DBB2002B06D073
:100E10000D4B01225A710C4B1B68002098474FF470
:100E20008270FFF754FF0346002B0AD04FF4827004
:100E3000FFF739FF0220FFF71FFF034B1B6801205C
:100E4000984700BF08BD00BF6C35002082B0034644
:100E50008DF807309DF90730002B0CDB9DF807302B
:100E600003F01F0205499DF907305B09012000FAD4
:100E700002F241F8232000BF02B0704700E100E019
:100E800082B0034600918DF807309DF90730002BA2
:100E90000ADB009BDAB20C499DF907305201D2B24D
:100EA0000B4483F800230BE0009BDAB207499DF85E
:100EB000073003F00F03043B5201D2B20B441A7601
:100EC00000BF02B0704700BF00E100E000ED00E0AD
:100ED00082B00190019B1B0B5BB2184602B07047B9
:100EE00000B583B003460A468DF8073013468DF8E7
:100EF00006309DF806209DF9073011461846FFF789
:100F0000BFFF00BF03B05DF804FB00B583B003462C
:100F10008DF807309DF907301846FFF797FF00BF9F
:100F200003B05DF804FB00B583B00346ADF80630AE
:100F3000BDF80630184600F026F803461B68012B62
:100F40000CBF01230023DBB2184603B05DF804FB9D
:100F500000B585B00346ADF80630BDF8063018463A
:100F600000F011F803461A4600231360BDF806305E
:100F7000184600F008F803461B680393039B00BF64
:100F800005B05DF804FB82B00346ADF80630BDF84D
:100F9000063003F1804303F5C043184602B07047A2
:100FA00082B00190034A019BC2F8043300BF02B033
:100FB000704700BF0060004082B00190034A019B6F
:100FC000C2F8083300BF02B0704700BF00600040A5
:100FD00082B00190034BD3F80423019B13401846C1
:100FE00002B070470060004082B00190084A019B47
:100FF00003F5A27352F82330054943F00102019B27
:1010000003F5A27341F8232000BF02B0704700BF70
:101010000060004082B00190084A019B03F5A27372
:1010200052F82330054923F00102019B03F5A27316
:1010300041F8232000BF02B0704700BF00600040AD
:1010400084B00390029113468DF80730144A039B35
:1010500003F5A27352F82330114923F4473323F4E4
:101060004073039A02F5A27241F822300C4A039BA6
:1010700003F5A27352F82320029B1B0203F4F851DC
:101080009DF807301B0403F440330B4304491A4313
:10109000039B03F5A27341F8232000BF04B07047FF
:1010A0000060004082B00190054A019B03F5A273E5
:1010B00052F823301B0A03F01F03184602B0704792
:1010C0000060004082B00190064A019B03F5A273C4
:1010D00052F823301B0C03F00303DBB2184602B0B6
:1010E000704700BF0060004082B001904FF0A04305
:1010F000184602B0704700B585B001900846114609
:101100001A4603468DF803300B468DF8023013461D
:101110008DF8013001AB1846FFF7E6FF03909DF80C
:1011200003209DF802305B001A439DF801309B00BC
:101130001A439DF818301B0242EA03019DF81C3047
:101140001B04019A1943039B02F5E07243F8221035
:1011500000BF05B05DF804FB00B585B003900B46F9
:101160008DF80B309DF80B30002201920022009286
:10117000002200210398FFF7BEFF00BF05B05DF815
:1011800004FB00B585B0019001AB1846FFF7ACFF3A
:101190000390019A039B02F5E07253F8223023F08A
:1011A00002030293019A039B02F5E072029943F84D
:1011B000221000BF05B05DF804FB00B585B00190BA
:1011C0000B468DF8033001AB1846FFF78DFF0390F7
:1011D000019A039B02F5E07253F82230019A23F43E
:1011E0004031039B02F5E07243F82210019A039B01
:1011F00002F5E07253F822309DF8032012041146E4
:10120000019A1943039B02F5E07243F8221000BFD4
:1012100005B05DF804FB00B585B0019001AB184640
:10122000FFF762FF0390039800F020F80246019B4D
:1012300022FA03F303F00103184605B05DF804FB3E
:1012400000B585B0019001AB1846FFF74DFF039044
:10125000019A039B02F5E07253F822301B0C03F055
:101260000303DBB2184605B05DF804FB82B00190C1
:10127000019BD3F81035184602B0704786B0039032
:10128000029101924FF0A0430493039B059319E050
:10129000059B9B0006AA134453F8083CD3F820256D
:1012A000019B1A60059B9B0006AA134453F8083C57
:1012B000019A1268C3F82025019B04330193059B12
:1012C00001330593039A029B1344059A9A42DFD394
:1012D00000BF00BF06B0704700B585B0019001ABFC
:1012E0001846FFF701FF0390019B012202FA03F366
:1012F0001A46039BC3F8202500BF05B05DF804FB28
:1013000084B00190019B5B09029300230393029B2D
:10131000002B03D14FF0FF33039300BF019B03F079
:101320001F030193039A019B22FA03F303F00103C5
:10133000002B14BF01230023DBB2184604B0704712
:1013400084B001900091009B0393019BDB08029302
:10135000019B03F0070301930122019B02FA03F3AF
:101360000399029A0A4412781340184604B0704751
:1013700084B001900091009B0393019BDB080293D2
:10138000019B03F007030193039A029B13441B780C
:101390005AB20121019B01FA03F35BB2134359B224
:1013A000039A029B1344CAB21A7000BF04B070477C
:1013B00082B001900C4A019B1344303393F9003002
:1013C000002B09DB084A019B1344303393F90030AA
:1013D000072B01DC012300E0002303F00103DBB253
:1013E000184602B0704700BF7435002082B00190EB
:1013F000064A019B1344303393F90030072BCCBFCE
:1014000001230023DBB2184602B070477435002078
:1014100082B00190064A019B1344303393F90030A7
:10142000DB43DBB2DB09DBB2184602B0704700BF1A
:101430007435002084B00390029101928DF803303E
:10144000029B59B20E4A039B134430330A461A706A
:101450000B49029B019A41F823209DF8033083F049
:101460000103DBB2002B08D0029B083B039A51B268
:10147000034A13440A4683F8502000BF04B0704763
:101480007435002082B00190044A019B134430332C
:10149000FF221A7000BF02B0704700BF74350020F1
:1014A00000B583B0019004490198FFF761FF00BFC8
:1014B00003B05DF804FB00BFC835002082B0019086
:1014C000044A019B1344303393F90030184602B0AC
:1014D000704700BF7435002082B00190034A019B21
:1014E00052F82330184602B0704700BF7435002010
:1014F00084B00190074A019B1344503393F90030A4
:101500008DF80F309DF80F3023F0C003184604B05B
:10151000704700BF7435002084B00190074A019BDA
:101520001344503393F900308DF80F309DF80F308D
:101530009B09DBB2184604B0704700BF7435002029
:1015400000B589B00390029113468DF80730FF2350
:101550008DF81F309DF80730002B01D0002300E0EC
:10156000082305939DF80730002B01D0082300E0E5
:101570000C230493059B069314E00F4A069B52F834
:101580002330B3F1FF3F0AD19DF80730029A069944
:101590000398FFF74FFF069B8DF81F3006E0069B70
:1015A00001330693069A049B9A42E6D39DF91F30B5
:1015B000184609B05DF804FB7435002082B003467C
:1015C0008DF807309DF80730094A4FF0FF3142F897
:1015D00023109DF80730072B07D99DF80730083BEB
:1015E000034A1344FF2283F8502000BF02B0704723
:1015F0007435002000B583B02D4B93F85830002B84
:1016000003D008230093009B4EE000238DF80730A1
:1016100011E09DF807301846FFF772FE0346002BD5
:1016200004D09DF807301846FFF72CFF9DF80730CF
:1016300001338DF807309DF807301F2BE9D90023BF
:101640008DF8073009E09DF807301846FFF7B6FF20
:101650009DF8073001338DF807309DF807300B2BCC
:10166000F1D904220021134806F0EAFA1248FFF7E4
:101670002FFC034606211846FFF732FC0E48FFF701
:1016800027FC03461846FFF740FC4FF4BE70FFF7F7
:101690005FFC4FF00040FFF783FC054B012283F80D
:1016A000582000230093009B184603B05DF804FB0C
:1016B00074350020C835002000600040044B93F8CA
:1016C0005830002B14BF01230023DBB218467047AB
:1016D0007435002000B587B0039002910192002379
:1016E00005930398FFF794FE0346002B02D00823CE
:1016F000059357E0029B9B78C3F34003DBB21A4685
:1017000001990398FFF71CFF03468DF813309DF9EC
:101710001330B3F1FF3F43D0029B9B78C3F38003A8
:10172000DBB283F00103DBB2002B13D0029B9B786A
:1017300003F00103DBB2002B03D00398FFF721FD78
:1017400005E0029B5B7819460398FFF705FD0398B7
:10175000FFF7A6FE029B9B7803F00203DBB2002B8F
:1017600008D09DF91300029B1B781A460399FFF7D6
:1017700067FC17E09DF91330083B0D4A134493F9B9
:101780005010029B1B789B015AB29DF91330083B05
:101790000A4351B2064A13440A4683F8502001E036
:1017A00004230593059B184607B05DF804FB00BFB2
:1017B0007435002000B589B001900B468DF80330D8
:1017C0000198FFF713FE0346002B2AD00198FFF77C
:1017D00075FE0346083B1846FFF79EFE03468DF84C
:1017E0000F309DF80F30032B0BD10198FFF713FD3D
:1017F0000346002B01D0032300E002238DF81F30A5
:1018000008E09DF80F30012B01D1022300E00323F3
:101810008DF81F309DF81F3019460198FFF7CDFC59
:1018200030E00198FFF7C4FD0346002B2AD0019851
:10183000FFF744FE03460693069B9BB240339BB2E0
:101840009B00ADF81630069B1846FFF7CDFBBDF8A0
:1018500016301846FFF77CFB9DF80330002B11D0A3
:101860000198FFF72BFE03461846FFF735FE04905C
:10187000049B002B06D00122069B02FA03F31846B4
:10188000FFF78EFB00BF09B05DF804FB00B585B023
:1018900001900198FFF7AAFD0346002B04D0002118
:1018A0000198FFF78AFC15E00198FFF781FD0346D8
:1018B000002B0FD00198FFF701FE03460393039B13
:1018C0001846FFF7A7FB0122039B02FA03F3184611
:1018D000FFF772FB00BF05B05DF804FB00B583B0F5
:1018E00001900198FFF797FC0346002B14BF0123DA
:1018F0000023DBB2184603B05DF804FB00B585B0E9
:101900000190019A01210020FFF7B8FC0023039306
:101910000BE0039B9B00019A13441B68002B01D032
:10192000012306E0039B01330393039B002BF0D0BC
:101930000023184605B05DF804FB000000B587B031
:101940000190002305935BE0344A059B1344503318
:1019500093F90030B3F1FF3F4ED00598FFF7C8FD73
:10196000049001990498FFF7EBFC0346002B44D048
:101970000598FFF7D1FD03468DF80F300498FFF767
:101980005FFC03468DF80E309DF80E30022B01D11E
:10199000032300E002238DF80D309DF80D30194629
:1019A0000498FFF70AFC0498FFF796FC0498FFF7E9
:1019B00085FD03461846FFF78FFD0290029B002B22
:1019C0001BD09DF80F30032B0FD09DF80E30022B4B
:1019D00003D19DF80F30012B07D09DF80E30032B5B
:1019E0000BD19DF80F30022B07D19DF80F20029BE1
:1019F00011460498984700E000BF059B013305930A
:101A0000059B032BA0D90198FFF778FF0346002B15
:101A100097D100BF00BF07B05DF804FB743500200C
:101A200000B589B000230693002300934FF4807320
:101A3000ADF81230012307930023059321E0BDF890
:101A400012301846FFF76FFA0346002B0ED00798A6
:101A5000FFF7BEFA0346002B08D0BDF81230184637
:101A6000FFF776FA069A079B13430693079B5B00E2
:101A70000793BDF812300433ADF81230059B0133E3
:101A80000593059B072BDAD94FF4BE70FFF74BFA8D
:101A90000346002B0DD04FF4BE70FFF759FA069B9A
:101AA00043F0004306936B461A4601210020FFF7DE
:101AB000E5FB069BDBB2002B29D001230793002313
:101AC000059321E0079A069B1340002B16D005983A
